:020000040000fa
:080000000002040000000000f2
:020000040000fa
:1000080004070000040700000407000004070000bc
:10001800c0af020004070000040700000407000046
:10002800baaf02000407000004070000040700003c
:10003800040700000407000004070000c093000044
:10004800040700000407000004070000fe930000f6
:10005800e093000004070000040700000407000004
:10006800ba97000004070000040700000407000016
:10007800040700000407000004070000040700004c
:10008800040700000407000004070000040700003c
:100098000407000004070000fca30000dea3000022
:1000a800040700000407000004070000040700001c
:1000b800040700000407000004070000040700000c
:1000c80004070000040700000407000004070000fc
:1000d80004070000040700000407000004070000ec
:1000e8000407000004070000b6030000040700002e
:1000f80004070000040700000407000004070000cc
:1001080004070000040700000407000004070000bb
:1001180004070000040700000407000004070000ab
:10012800040700000407000004070000040700009b
:10013800040700000407000004070000040700008b
:10014800040700000407000004070000040700007b
:10015800040700000407000004070000040700006b
:10016800040700000407000004070000040700005b
:10017800040700000407000004070000040700004b
:10018800040700000407000004070000040700003b
:10019800040700000407000004070000040700002b
:1001a800040700000407000004070000040700001b
:1001b800040700000407000004070000040700000b
:1001c80004070000040700000407000004070000fb
:1001d80004070000040700000407000004070000eb
:1001e80004070000040700000407000004070000db
:1001f80004070000040700000407000004070000cb
:1002080004070000040700000407000004070000ba
:1002180004070000040700000407000004070000aa
:10022800040700000407000004070000040700009a
:10023800040700000407000004070000040700008a
:10024800040700000407000004070000040700007a
:10025800040700000407000004070000040700006a
:10026800040700000407000004070000040700005a
:0c02780004070000040700000407000059
:020000040000fa
:100400002f192300ee7e24000e018800000000005a
:10041000000020000000e000020032000001200087
:10042000200288000c0007004090280001002000f6
:100430000f000700000020000000e0000200320072
:10044000000002000000000010b6020000000000e2
:100450000040da000000fe00c0ee21000000e000d5
:1004600002003200002020009001880000000600f9
:10047000a1028800800078000000eb001a0037001d
:10048000e280400054a0b4009101ba00e280400034
:1004900054a0b4009102ba00e280400054a0b4001d
:1004a0000002eb00472bde00f507b200a601880032
:1004b000602ce10008003a000049eb000201e8006e
:1004c000020039003420ec0002f0a0008301e900b2
:1004d000f9ff3e00040037006128e100010032000e
:1004e0000082eb00040007001101ba000200e000e6
:1004f000e3ff3a000000060004d0a300e20f490029
:100500001c003900810278003549ba000201e80078
:10051000020039003420ec0002f0a0008301e90061
:100520000f0032002549ba000201e800020039003c
:100530003420ec0002f0a0008301e9000800320042
:100540000400e0000600320015c9ba000201e8000c
:10055000020039003420ec0002f0a0008301e90021
:100560008180e80054a0b4000300e000e2ff3a00fc
:10057000000006009102ba00055978008301e900e5
:10058000f7ff3200c82ade00055978008301e90030
:10059000f3ff32000400e000f1ff320011d9ba008d
:1005a000eeff3700e6b0040000000000e6b10400f2
:1005b0000000000010b7040000000000349a04009e
:1005c00000000000ceaf040000000000a86d040091
:1005d000000000008c7f0400000000008eb40400c6
:1005e0000000000062af040000000000beb3040081
:1005f0000000000012ad040000000000f4980400a8
:10060000000000006a9b0400000000009ea9040096
:100610000000000030b004000000000076aa0400d2
:10062000000000004c9d040000000000c083040096
:1006300000000000e6830400000000000e840400b7
:10064000000000002c84040000000000528404001c
:10065000000000008e84040000000000a28404005a
:1006600000000000b884040000000000ea840400d8
:100670000000000012850400000000003085040026
:10068000000000004e85040000000000908504007a
:1006900000000000449f040000000000769f04005a
:1006a00000000000309f040000000000bc73040044
:1006b000000000001e740400000000003c740400f0
:1006c000000000003a750400000000007a75040084
:1006d000000000007c740400000000002c76040080
:1006e00000000000ac76040000000000d878040090
:1006f000000000008c7a040000000000807b0400f1
:1007000000000000067c040000000000847c04005f
:10071000000000002212040000000000c6120400c5
:1007200000000000721304000000000034140400f4
:1007300000000000ee140400000000009415040006
:10074000000000008eac04000000000052ac040069
:1007500000000000ceac040000000000f6ac040075
:1007600000000000daac0400000000000000fa0005
:100770000648a9000080fa00004006000400fa00c4
:100780000002eb00040f78000002eb001407980051
:10079000ec15020000000000f0f72f00fc1502002d
:1007a0000000000004312d00040f7800c40920006f
:1007b000140798009e0090001e0078004816020062
:1007c000000000000080fa00000006000800fa00a7
:1007d000204798002107980032079800521602001f
:1007e000000000005a160200000000002e42900097
:1007f0000482fb00040242000442780004407800b6
:100800007c160200000000005a16020000000000e2
:100810000002eb00040f78000b0037002e0290005e
:1008200014427800ae0290008502e8002507980087
:10083000044078007c160200000000005a160200f6
:10084000000000001e0fe8003e0290009e027800ab
:10085000848f5200f1ff39009e1602000000000054
:100860005a160200000000000002eb0004007800ad
:100870000080fa00000006000800fa0020479800f7
:10088000210798003207980052160200000000006d
:100890005a160200000000002e4290000482fb0065
:1008a0000402420004427800044078007c160200f2
:1008b000000000005a160200000000000002eb00d9
:1008c000040f78000b0037002e02900014427800cd
:1008d000ae0290008502e8002507980004407800e9
:1008e0007c160200000000005a1602000000000002
:1008f0001e0fe8003e0290009e027800848f520096
:10090000f1ff39000002eb00040078000080fa00db
:10091000000006000600fa00004f7800110798005a
:100920002207980052160200000000005a1602002a
:10093000000000009e4278000582fb000402420095
:10094000044278000404a000044078007c160200f1
:10095000000000005a16020000000000823e200045
:100960009e0090002e009000a616020000000000dd
:100970005a160200000000009e160200000000004f
:100980005a160200000000000002eb00040078008c
:100990000080fa00000006000400fa00000f780052
:1009a00021479800324798000e82e800120020008c
:1009b00084007800b0c0b300afff0700800c2000b7
:1009c0003cb70200000000003e4290000482fb00a1
:1009d000040178009e007800b0c0b300cdff07008e
:1009e0000080fa00000006000a00fa00889fbe009e
:1009f00030079800014f9800124f98000f047800bc
:100a00000f027800840478001e4a90000482fb00e4
:100a10000402e8008402e900150798000402e800d7
:100a20000402e8000402d100840242000f027800b0
:100a3000858747000402e8000402d1000402420056
:100a4000240798002e0290008e4a9000054a7800f4
:100a500014002000040f7800090037003e029000c7
:100a6000944278002e0290001e024200054a78004f
:100a70003e0290000402e800340798001e0fe800d0
:100a80001e4a90000482fb009e0f5200f3ff3d00bf
:100a90001e4a90000482fb000402e80084027800f1
:100aa0002e0290000501780084007800b0c0b300e9
:100ab00046ff070089077800880778004f04be00ca
:100ac0000080fa00000006000a00fa0030079800d3
:100ad000410798000042eb002447980014002000d2
:100ae000040f7800080037004e029000944278000e
:100af0001e82e80005777a004e0290000402e800aa
:100b0000440798001e0fe8001e027800e20f520012
:100b1000f5ff34000e82e8003200200084007800e7
:100b2000b0c0b30029ff07000e82e80012002000c9
:100b300084007800b0c0b3004fff070022002000ff
:100b4000be009000b0c0b30072ff07000080fa0042
:100b5000000006000a00fa006802470022c0b30045
:100b600081c0b300040078008bff07001e4a90008c
:100b70000482fb00c822dd000e4a90000482fb00c4
:100b800004824200cfa2de000400be00760702000d
:100b9000000000006022b800060020004702240088
:100ba0007c070200000000000002be000203be003d
:100bb0000400be000601be006466260065662600cd
:100bc00066262100170724003008020000000000fc
:100bd0000002be000203be00049fbe000697be00d6
:100be0003e02be002e03be000400be000601be0091
:100bf0000080fa00000006002c00fa003017980070
:100c0000016f9800126f9800236f980074c7b300ab
:100c1000244798000042eb00344798000e6990008a
:100c2000424798000e82e8003200200084007800dd
:100c3000b0c0b300e5fe07001e6a90000482fb000e
:100c40004522de00044278008447b00054679800d3
:100c5000540220000e02420012002000840078009e
:100c6000b0c0b30004ff0700650247000202200085
:100c700084007800b0c0b30026ff07000002eb003c
:100c8000040f7800100037001e027800be1290009a
:100c9000048242009e6a90000583fb00de629000a1
:100ca0008583fb0005fe2f0085b9b900820278001c
:100cb000850243009e824200e5824200eec27a0035
:100cc000054a78001e0fe8002e6a90000482fb009f
:100cd0009e0f5200ecff3c000080fa00000006006e
:100ce0004e00fa004027980021cf980032cf98009c
:100cf00043cf980074c7b300244798000042eb002c
:100d0000344798002eca9000444798000e82e800ad
:100d10003200200084007800b0c0b300abfe0700b2
:100d20003eca90000482fb004522de0004427800a7
:100d30008447b00054679800540220000e0242001d
:100d40001200200084007800b0c0b300cafe070083
:100d5000650247000202200084007800b0c0b300a2
:100d6000ecfe07000002eb00040f78000a003700d9
:100d70003eca90008482fb0004fe2f0004826200c1
:100d80001e024200ce229000954278006502420089
:100d900005777a001e0fe8004eca90000482fb001f
:100da0009e0f5200f2ff3c005e6290006467980064
:100db00014002000040f7800070037001e02e9002d
:100dc00065024200ee427a00660220001e024300e5
:100dd00005777a001e0fe800040220009e027800ca
:100de000848f5200f5ff3400640220000e0242009e
:100df0001202200084007800b0c0b30073fe070028
:100e00000080fa00000006000040da000000fe004a
:100e1000800078001104b100030035009101b10099
:100e200001003c000050a000000006006900e10045
:100e3000040035006d00e100030034000002b10041
:100e40000100320000000500100005001006b1008e
:100e5000030035009001b10001003c0010000500c6
:100e6000000005001004b100070035009001b1003a
:100e7000040034007000b100030035009001b1009f
:100e800001003c0010000500000005008000780013
:100e90001106b100030035009101b10001003c00d2
:100ea0000050a100000006000000fa0000c0da00b7
:100eb0000080fa0000000600440020000a00fa004a
:100ec00010079800410798000e007800040f780082
:100ed0002207980033079800f3ff07002e009000c8
:100ee000be0090000080fa00000006004f89de007e
:100ef00082017800110137002800fa00889fbe00a7
:100f00008a9fbe008c9fbe0003866b001b010700fa
:100f10006400e100440032006408e1004a0032004d
:100f20006100e100460032006108e1004900320042
:100f3000ec0647006000b8003d02be003d03be0065
:100f4000f48657006011b8003d04be003d05be00a8
:100f50007d0320000b0037000000a0008d06e90093
:100f6000130032000402420085824a0006034b004f
:100f700087834b0000004000818048000201490047
:100f8000838149000802520089825a000a035b00eb
:100f90008b835b00f0ff3b000802420089824a001d
:100fa0000a034b008b834b008d06e900edff3a00ee
:100fb0008482720086827200f707b2008782720014
:100fc00001003200150020001e0490003e0b90002e
:100fd00006035400e63fb0000368a3000700320098
:100fe0000000a7000500a0008301d1000281d3000a
:100ff0008180d3000080d3000603e8008301d10084
:101000000281d3008180d3000080d3000002eb0076
:101010000482d200f200070003f0a1000cf0a70048
:1010200003f0a000e9003700640247006408e10013
:10103000e30032003400be003401be00f6ff37008a
:101040006108e100de0032006011b8006000b80005
:10105000f1ff370003ff270002002000fbff3700ed
:1010600007f0a2000a0137006022b8000602200043
:101070000000d0008180d2000482d2008582d2009c
:101080000000a0000202520083825a0003003100d7
:101090000202420083824a000000a1000603e90028
:1010a000f3ff3a00000006008f1fd1007501070012
:1010b0008f87e9000000e000000006002800fa0029
:1010c000889fbe008a9fbe008c9fbe0003866b0077
:1010d000aa0007000028a30064003a000128a3002a
:1010e00067003a000008a30062003a000108a3006c
:1010f00065003a001e009000be0890008106400086
:10110000ed3fb100f4805700ee019000111ab800d5
:101110008e099000311bb8009e099000311cb80068
:10112000511db800f485570046000700fe019000ed
:101130003a0007008b85e8003e0007008e0990000a
:1011400040000700ee019000340007008b85e800a6
:10115000380007008e099000400007009e099000ab
:101160001b18b800890440000a854800fe01900061
:10117000340007008b85e80038000700ee0190007e
:10118000300007008e0990001b18b8008904400049
:101190000a8548000a98a30008003a0004024200a9
:1011a00085824a0006034b0087834b0008044c00ed
:1011b00089844c000a054d008d06e9008482720086
:1011c000850273004c3add00850272000100320096
:1011d00015002000443ade001400b2004538de005d
:1011e000cb45dd000b007000c540de00cb4ddd00bf
:1011f0008b8070004549de00cb55dd000b0171008e
:10120000c551de000d0378007500070003f0a10052
:101210000cf0a70003f0a0006c0037001b18b8000a
:101220008502400006834800e0834b0060044c00c8
:10123000070037001b18b8000603400087834800ea
:10124000faff37001b18b8008703400008844800e5
:10125000e0844c0060054d00000006001b18b8003b
:101260000804400089844800faff37000108a30001
:1012700053003a005800be005801be00e3ff37009b
:101280000008a3004e003a0009047800f9ff370077
:10129000889fbe0000827000040271000482710009
:1012a0002400320036432000c50020008383cf0095
:1012b0000a0039000541b1008283cf0007003900e0
:1012c0000541b1008183cf00040039000541b10020
:1012d0008083cf00010039000541b10085c3530070
:1012e0006022b800120032000a003b0084827200c3
:1012f000610260008301d1000281d3008180d300ac
:101300000080d3000603e8008743e800f7ff3a00b7
:1013100007003700000040008180480002014900ba
:10132000838149000603e9008743e900f9ff3a0099
:101330002b0007004f04be0000000600881f780045
:10134000030478000300e00007003d006000100087
:10135000e080180060011900e081190002003b00e4
:1013600001f02d0003003700c9ff070008f0a700b7
:1013700003f0a0004f047800000006006804470056
:101380000294be000094be00fc0447008694be0098
:101390008494be0009007800e3000700080078008c
:1013a000e100070099007800814f70000b003b00be
:1013b0000800be00030107004f00b1000300370022
:1013c000f3ff2700f2ff2f006110b9004f06be00a7
:1013d0004f05be004f04be000080fa00000006006a
:1013e0001800200057002000080453000d003d00a5
:1013f0000600200097fc2f000740e1001e0034008b
:1014000084827200610260008301d1000281d300f6
:101410008180d3000080d3000804e800f8ff3a0080
:1014200047002000610460000504740004046400a7
:101430000d00320061004000e0804800600149007a
:10144000e081490003b8a500070032000603e80068
:101450006538e10004003a008301d1000281d30025
:101460008180d3000080d300f87f20000830e100a5
:1014700003003500080378006000b8006011b80070
:101480004433dd00f300b200830173000000060066
:101490002800fa00889fbe008a9fbe008c9fbe0075
:1014a00007067800878669000c003b00030478007b
:1014b0008704780008f0a10009f0a100840f500013
:1014c000858f5800860f5900890f5c000300330098
:1014d0000cf0a20001003a000cf0a100a7ff0700e9
:1014e0006400e1005f003200780147006408e10019
:1014f000610032006c014700748557003200be0065
:101500001201be003a04be001a05be001e03900080
:10151000be0a90008503530006003d000004fd0054
:101520008104fd000205fd008305fd008703ea003c
:10153000050378000df8a3000400320060041400d5
:10154000e0841c0060051d00e0851d006022b800dd
:101550007d0320000d38e1008006eb000b00390010
:101560004433dd00f300b20083017300390037001b
:10157000848272000d027800e10664008b85d10040
:101580000a85d3008984d3000884d3008703e90047
:10159000f7ff3b0008004000898048000a0149002d
:1015a0008b81490004003b0060001000e0801800bf
:1015b00060011900e08119000358a30009003200fe
:1015c0008d82720084827200610260008301d1000a
:1015d0000281d3008180d3000080d3000603e8009d
:1015e0001b0037000348a30017003a000600e00084
:1015f000170034000603e9000d00a30000004800b6
:101600008180480002014900838149000348a3000a
:101610000f003a000600e000090034000603e9006c
:101620000000400081804800020149008381490098
:1016300001003a000003eb000348a300f5ff32006d
:101640006022b80002003700848272006182660066
:1016500063ff070003f0a1000cf0a70003f0a00057
:101660005aff3700640147006408e10002003a00b5
:101670000df8a30052ff3a003200be001201be0076
:1016800052ff3700889fbe008a9fbe008c9fbe001d
:101690000404be000605be00809fbe00829fbe00ff
:1016a00056000700040678000800be000a01be00cc
:1016b00052000700840678004f03be004f02be00b0
:1016c0008d4f76007fb0970013003300f0ff2f009e
:1016d0008b8f6b0006003b000d0666000c00a70018
:1016e0000a00370007f0a600100020000a003700ab
:1016f000880f5200898f5a008a0f5b008b8f5b0026
:10170000030039001000200001003e00000020000e
:1017100007f0a7000000ea004f06be004f05be001c
:101720004f04be0000000600800078005002be009a
:101730005003be004439de00f700b200f37f200002
:1017400003016100090032000218e10016003a00ae
:1017500085017200830173008381730000082000fb
:1017600015003a0040002000130037008501720088
:10177000830173008381730005003a0004a8be0052
:1017800006a8be00100020000b0037000201e9008f
:101790000402420085824a0006034b0087834b0007
:1017a0000748a300f9ff32000740a00004a8be00cc
:1017b00006a8be002000200080009800920098003b
:1017c00000000600e48240001078a3000700320009
:1017d000640240001178a3003400be001401be0072
:1017e000040032000330a700000006003500be00f0
:1017f0001501be000330a0000000060005ff270011
:1018000005826100070032000428e1000100320077
:10181000240005000600070001003a00440005000e
:101820000408050002000700f9ff3a001400050053
:101830006f82610081027000850271008502720072
:1018400000000600020ab900001bb9000200b8003f
:101850008100420081004300000006004f89de0045
:101860008201780028023700140020003602370079
:10187000889fbe008a9fbe008c1f78004d02070023
:101880005402330003866c006450e1002e003200e5
:101890006420e100330032006150e1002f0032008b
:1018a0006120e1003100320085855500eb07b00072
:1018b0000900200008042000050037000804440047
:1018c00089844c000a0031000603430087834b00e3
:1018d0000001530081815b00f8ff33000203be006a
:1018e0000800a0000804440089844c00f6ff390079
:1018f000c639dd00830173000100320013002000af
:101900008904d1000884d3000998a300050032009f
:101910000800a7000300a0008904d1000884d300b8
:101920008b05e8008904d1000884d3000001eb0096
:101930000281d2003702070001f0a1000cf0a700dd
:1019400001f0a0002c0237006420e1002e023200da
:101950000801be000200be00f7ff37006120e10071
:10196000290232006000b800f3ff370000002000b9
:1019700001f82700f0ff3700889fbe008a9fbe0055
:101980008c1f78000b0207001202330003866c00e4
:101990006450e100240032006420e100270032009e
:1019a0006150e100220032006120e100210032009c
:1019b0008b854200eb07b1000134b800003ab80053
:1019c0000804420089844a00013ab8000030b80097
:1019d0008880400009014a000400330000004000f4
:1019e00081804800020149008b05e900c909dd003a
:1019f000830170000100320013002000c814de00d3
:101a00004814dd004709de001200b200c808de00fd
:101a100008847000ff01070001f0a1000cf0a7008e
:101a200001f0a000f40137006120e100f60132006e
:101a30000801be000200be00f7ff37006150e10060
:101a4000fcff3a00f0013700f4ff2f00be01370021
:101a50000000fa00889fbe008a9fbe003004be00ce
:101a60002005be000404440085844c0006054d009a
:101a700087854d000898be000a90be000440e10032
:101a800005c8e10006d0e10007d8e10002003100fe
:101a9000680040001008e8004f05be004f04be007b
:101aa0000080fa00000006001000fa00889fbe00c7
:101ab0008a9fbe000605be000404be003002be00c0
:101ac0002003be00049fbe000697be001100200048
:101ad0000802520089825a000a035b008b835b0074
:101ae0004407980055079800660798007707980004
:101af0000498be000698be003e02be002e03be0043
:101b00008f000700010039008000eb004f05be0088
:101b1000108810004f04be000080fa00000006008c
:101b20001400fa00889fbe00bf0007008a9fbe0015
:101b30008c9fbe000006eb004c0798003c07980005
:101b40002c0798001c0798000c0f78000605be00b3
:101b50000404be000d0420004e039000be0290005d
:101b6000860343002e029000e00f530003003d0067
:101b700078000700b6ff0700020037007500070075
:101b8000c9ff0700ce029000150f9800e08f5200a9
:101b900009003500a90007001400200005002000fe
:101ba0006033b8000000720081807200020173008f
:101bb000838173009c0007000c06e8008d0f56001f
:101bc000e5ff3a001e0a9000e00f520004003d00bd
:101bd0000802be000a03be000e0078009cff07004a
:101be0004eba9700e00f520006003a003e04be00d5
:101bf0002e05be0058079800690798007a079800dc
:101c00000b0f98004f06be008c0007004f05be006a
:101c10004f04be000080fa00000006000000fa0039
:101c2000881f780018002000881f7800bcff07007c
:101c30008f87e9004f0478000080fa00000006005a
:101c40000000fa00801feb00b5ff07008f87e90056
:101c50000080fa00000006000000fa00889fbe0025
:101c60008a9fbe005a00070008003d007800070068
:101c70005c000700180020005f00070008003d001e
:101c8000290007000004eb00050037000004eb000a
:101c90005900070002003d00230007001800200043
:101ca000deff0700e00f540001003200570007007c
:101cb0004f05be004f04be000080fa000000060081
:101cc0000000fa00889fbe008a9fbe008c1f78002b
:101cd0003f00070006003d005d0007001c002000db
:101ce000400007001600070006003d000400370012
:101cf0000006eb004000070002003d005400070012
:101d00000a000700ceff0700e00f56000100320076
:101d10003e0007004f0678004f05be004f04be008e
:101d20000080fa0000000600490007000402540089
:101d300085825c0006035d0087835d00000006006d
:101d40000820e10009a8e1000ab0e1000bb8e100b9
:101d5000000006004f2bde0038000700868373006a
:101d6000858242004f23de0047079800868272007a
:101d700004024200350798009e0290004f2bde00bf
:101d80008582420006027200240798001e02780035
:101d90004f23de000402420086827200150798007d
:101da0004f18de00000f7200240007000802be007a
:101db0000a03be0000004000818048000201490083
:101dc00083814900180007000e007800000006001b
:101dd000e00f5000e08f5800e00f5900e08f5900ed
:101de000000006000000540081805c0002015d00dc
:101df00083815d0000000600e00f5200e08f5a0072
:101e0000e00f5b00e08f5b00000006006022b8007e
:101e10006033b8000000520081805a0002015b006c
:101e200083815b000000060050079800610798005e
:101e300072079800030f9800000006005e009000f3
:101e4000ee0090007e0190008e09900000000600d8
:101e50006044b8006055b800000006000000fa00b9
:101e6000889fbe008a9fbe008c1f78000006eb0092
:101e7000e00f5000e08f5800e00f5900e08f59004c
:101e800007003d006044b8006055b8001c00200009
:101e90000000540081805c0002015d0083815d00d0
:101ea000e00f5200e08f5a00e00f5b00e08f5b0014
:101eb00007003d006044b8006055b8000c00a20067
:101ec0000402540085825c0006035d0087835d0088
:101ed000f6000700e00f5600060032006022b8004e
:101ee0006033b8000000520081805a0002015b009c
:101ef00083815b004f0678004f05be004f04be0093
:101f00000080fa0000000600801feb00ddfd0700e6
:101f10008f87e9000000e000000006001400fa00ce
:101f2000889fbe008a9fbe008c9fbe00040678007a
:101f30000004be000205be00680047000a90be0013
:101f40000890be00f8fd07006200e1000800be0036
:101f50000a01be00040020000b003a001e0290009f
:101f6000e43fb1006e009000fe0090000e0990006a
:101f70009e099000f300b20005fe230085817100e8
:101f80000bf0a70003f0a000040e78000ffd37004f
:101f9000809feb00bbfd07008f87e9000000e00099
:101fa000000006001400fa00889fbe008a9fbe0051
:101fb0008c9fbe000004be000205be006800470002
:101fc0000a90be000890be00d7fd07000070a70071
:101fd0000bf0a1000bf8a30020003a009e0990002e
:101fe0000e099000fe0090006e0090009e0290008e
:101ff0003443200084825200f4fc32000a003c008a
:10200000b4fc2f000428e100140034008301d10047
:102010000281d3008180d3000080d3008502e800d4
:10202000faff3a00e9fc3700b40020000428e10080
:1020300007003c0000004000818048000201490088
:10204000838149008502e900faff3a00dffc37008e
:102050000300280002002000010037006011b800d2
:102060006000b800d9fc37001400fa00889fbe0059
:102070008a9fbe008c9fbe000004be000205be0009
:10208000680047000a90be000890be00a6fd070049
:102090000070a7000bf0a1000bf8a30016003a0097
:1020a0009e0290003043200080825200b0fe2f003c
:1020b0000028e1000d003c00b0fc2f000028e100ea
:1020c0000d0034001e0990008e0890007e009000e4
:1020d0000501b0000201d1008180d3000080d3004f
:1020e0008502e800fbff3a00b8fc37000100280039
:1020f00000002000b5fc37006000b800b3fc3700da
:102100006011b80062fc3700881f78000304780073
:102110000300e00007003d0060001000e0801800b0
:1021200060011900e081190002003b0001f02d0060
:10213000030037007f00070008f0a70001f0a000af
:102140004f04780000000600889fbe008a9fbe00f2
:10215000841f7800170007004f007800110033003b
:10216000f0ff2f00838f6c0006003b000405650024
:102170000a00a7000800370009f0a60010002000a0
:1021800008003700820f5400838f5c000300390081
:102190001000200001003e000000200009f0a70010
:1021a0000000ea004f05be004f04be000000e00042
:1021b000000006000004be008d0007000003be0002
:1021c0000405be000200be0089000700844f7500b0
:1021d000000006000200be006450e1000500360069
:1021e0006420e100020036000968a30001003a0003
:1021f0000800be000160a0004f0678004f05be0039
:102200004f04be0000000600f0ff2f00f1ff270082
:10221000f9ff370081002000618055000b003d0070
:102220000b00200061fe2f000100e1001d003400c2
:1022300082817100610164008904d1000884d300a7
:102240000000e800faff3a0071002000610064001d
:1022500003007000020060000900320061044400c5
:10226000e0844c000988a500050032008b05e800d9
:102270006808e10002003a008904d1000884d30014
:10228000f20f20000258e10005003d00c75ddd00af
:10229000f907b20089807500080078000000060088
:1022a0000bf827008b00780000000500889fbe0017
:1022b0008a9fbe008c9fbe000404b8000506b800cb
:1022c0008904460060854e000606b8000a054600ef
:1022d000e0854e000706b8008b054600040eb800e6
:1022e000890446000a854e00e0854d00050eb800c1
:1022f0000a0546008b854e00060eb8008b05460089
:102300000416b8000a0546008b854e000516b80075
:102310008b054600041eb8008b0546000800be0071
:102320000a01be004f06be004f05be004f04be00ae
:1023300000000600889fbe008a9fbe0000827000d9
:102340000402710004827100260032000004be0005
:102350000200be006011b8006b0920009502200049
:102360000182cf000a0039000541b1000082cf0090
:10237000070039000541b1000982cf00040039008f
:102380000541b1000882cf00010039000541b100cc
:1023900005425200120032000a003b0082817100a7
:1023a000610164008100d1000080d3008984d300e2
:1023b0000884d3008b05e8000442e800f7ff3a00e8
:1023c000070037000804440089844c0000004800de
:1023d000818048008b05e9000442e900f9ff3a00da
:1023e0008cff07004f05be004f04be000000060032
:1023f000c70ade00f107b200f50fb2000800320094
:10240000e1cf4200020032000170a000240005006c
:10241000810f70000100320004080500440005002f
:10242000810f700002003a00140005008502e900e7
:102430000000400081c04800fcff3b000170a0008c
:10244000240005000001eb008003eb000031ef00e9
:102450000231ef000431ef000631ef000831ef00e8
:102460000a31ef000c31ef00f1292b00e2cfb3006d
:102470000188880000b1bf00150280008500b2000d
:102480000091bf00b20197000349960002b1b70066
:102490000001fd0004b1b700a20298000502780017
:1024a000664298000502d0001400b0000480fd00d0
:1024b0003401be000400be00452a780000aabe0018
:1024c0002401be00050378002500be001300b00003
:1024d0000380fd00e63178002403be00054a780041
:1024e000020078001401be000292be000231a90071
:1024f0000110a1000271a8000100a0000291ab0030
:102500000488ad000090a2000090a3000120ad005f
:1025100002d1aa000008a50001e8a3000180a500df
:1025200004c0a4000551ac0001d8a4000401df00e0
:102530008401cf00830269000581cf000231ae0023
:102540000271ae000231ef0002d1af000231af00e4
:102550000231ef0004b0a7000450a7000002eb0016
:1025600004a0a6000470a6000002eb000291b600d1
:102570000491b600868168008282690087816a00c2
:102580008080410001007800000006004400f8004f
:102590002000f8003200f8005400f800881f78008e
:1025a000891f78008a1f78008b1f78008c1f7800a5
:1025b0008d1f78008e1f78000120200001d0fe00c2
:1025c0003280bf0042552d00920178000300400088
:1025d0005420200004d0fe00455529001503780042
:1025e000060050000710200007d8fe005400b40079
:1025f000a8aa2a00b843ba0007004000a843ba00be
:10260000070040001882ba0004004000f90f2000c3
:1026100009d8fe005400b400090020009982ba00d5
:10262000050040001903ba00060040005a55250075
:10263000abaa2a0011002000f4ff2f00acaa210051
:102640004d5521000e002300e87f24008d5e7800a8
:102650000a0e78008d567800010f7800040c78007f
:102660001c0040001d0040001e00400018005000eb
:10267000091021001b8888008b1c45001907780071
:102680000e00500020a0ef002000b4008801800060
:10269000080050007901800009005000000000008f
:1026a0000000ff002e00b4003000b400008089005c
:1026b000f03f8a004f077800cf0678004f06780079
:1026c000cf0578004f057800cf0478004f047800dc
:1026d0005400f9003200f9002000f9004400f9002c
:1026e000000006000008f8002008f800c208f80002
:1026f0005200f8000000ef00c3e8a8002008a8007e
:102700001300fc005200b400124680000008a8002c
:10271000410f20003300200000a0fe000100370020
:1027200071004000030601002002b0003003b00039
:10273000300037000008a9002008a90001003d0072
:102740004004b000f9ff3e00010039005005b00020
:10275000f6ff3400010038006006b000f3ff3000df
:1027600001003a007007b000f0ff32008140e9003c
:10277000010031008008b000ecff39000100310099
:102780009009b000e9ff3c0001003500a00ab0004c
:10279000e6ff360001003300b00bb000e3ff3b0062
:1027a0007401800004005000da13040000000000ef
:1027b000c00cb0003000b4002e00b40029000700a7
:1027c0000080420003020100e23e210002040100f9
:1027d000d00db000e00eb000000006004340210024
:1027e000740180000400500003000100181402006e
:1027f000000000005200f900c208f9002008f900aa
:102800000008f900000006008f0378004000fa007d
:102810004700400047004000878257000500400005
:102820000080fa0087825700050040000000060083
:10283000801f78000080fe000011f9004200b60001
:102840000011f800008040004f03780006004000af
:10285000829fbe004f02be000502420004004000fd
:1028600000000600750505008001eb000110210045
:1028700000b1ef000080ef000081eb00f21fb2001a
:10288000ff4161008328600002b1b6000231d4002c
:102890000211b6000231ef000231b7000211d4007c
:1028a0000211b700a04ab30001027000f9017200e2
:1028b0000000ef00f09fb200730268000031b60024
:1028c0000091b6008408680002b1d7000291d700d9
:1028d0008088d3000231d7000211d7008008d300ce
:1028e00002b1d6000291d6008088d2000231d60013
:1028f0000211d6008002d20002b1ee000291ee0079
:102900008088ea000231ee000211ee008008ea0041
:102910000231d5000211d5000003d100c7abde00a3
:1029200007b1de0002b1d5000291d5000083d100cd
:10293000c333dd000703d000cd33de00072bde00fc
:10294000c432de000510dd008002eb00070ce10060
:102950004300af000211e3001e0038004200e20015
:102960001c00320066bce1001a003b000091e3004d
:10297000180038000500e00016003a007310e1006e
:10298000140039000588e1004300af00178ce70010
:102990001000b00015b0e7001408e6001000b00009
:1029a0001410e60011a0e6001000b00012a0e6002e
:1029b0001310e7001000b000113ce7000081510047
:1029c0008241d00073c0b2000342ea008442d100c9
:1029d00005c3ea000600780000000600f71020009a
:1029e0005435ef0054f5ef005435ec000000eb00d7
:1029f0005455ec008000e80054f5ec005495ec00d0
:102a00000181e8005435b4005415b400f23fb00021
:102a10004280b60007006000ff01410082c0d20082
:102a200001c241008402fb000100390002003e00a7
:102a3000422321003a00370054b5b400fcff3100b6
:102a40000040fd00f5bfb0005475ed007f834a00e3
:102a500086c0d1000143d3005495b4000100360074
:102a6000f3ff37000601e90082404800f0ff310023
:102a7000efff3d004280b60007006000ecff33002e
:102a8000ebff350001003b00e9ff370054f5ed0096
:102a90005495ed000181e9008041d20003c0d300cc
:102aa0005435b50001003400e1ff37005455b5003e
:102ab000f23fb100ff01510054b5b5005495b50087
:102ac0000082fb0001003c00d9ff3700f4bfb100d9
:102ad0005415ed00ff025a0083c05a00010039006e
:102ae000d3ff370054f5bd005495bd00ff81180099
:102af0000040eb005435bd005415bd007f011000af
:102b000002821900874213001100090042aad8006e
:102b1000c7ff380001003000c5ff37000101500039
:102b20000200780000000600c008f8003600f80037
:102b30004400f80020042f0050d58800a3aa2100eb
:102b40001400280013a3b900110009000783d8005e
:102b50000103b900850180008502520072018000e6
:102b600082825200110009000703d8006721b900d2
:102b7000110009000301d8000183b80014012000ee
:102b800004800900433bd8000103b8007f31b8003e
:102b90000301410087824200050041004400f90022
:102ba0003600f900c008f90000000600841180001a
:102bb0000000fa0066026200e60f520002003a00ce
:102bc000b011800002003700b0118000f00fb20099
:102bd0000080fa000000060017e2a9000000fa00d9
:102be0002628a9000080fa002648a9000628a90086
:102bf0000648a900000006000628a9006702600038
:102c00000648a9004422dd000000fa00f5f82f0074
:102c10000080fa00c642800086826200850272004f
:102c200000027800c54288000407b200f58f2f002b
:102c30004422dd00c6428000868262008502720066
:102c400068026000c54288004322de00d5ff2f00e5
:102c50006102620036418000868262000402420006
:102c60000008b200850272004700de00354188008e
:102c700061006000b4ff2f004200dd00354180009c
:102c80000502620004027000344188000000060062
:102c90000000fa00a11088000080fa00b01088003f
:102ca000000006001602a8000000fa000080fa00ea
:102cb00000000600040024000000fa001602ab0029
:102cc000feff3a001642ab00fcff3a001662ab0072
:102cd000faff3a001622ab00f8ff3a001682ab006a
:102ce000f6ff3a00c610800086026200f3ff3a0049
:102cf0000080fa00000006000080fb000000fa00df
:102d00009010880000c0eb0018e2ab0009003a0008
:102d100004002400c610800086026200fdff3a0015
:102d2000e4ff0700000028001802b600010032008e
:102d3000e0cfb3000080fa00000006001642a800b1
:102d40000000fa000080fa00000006000000fa000f
:102d5000889fbe00000478008a9fbe00810478002e
:102d600082057800130037001662a8000005eb000a
:102d7000030037008b0f5500100031000a05e800f2
:102d8000c7000700e04f5000faff320084108000b7
:102d90000804e900845c780002003a0016a2a8004a
:102da0000100370016a2a9001682a8001682ab0007
:102db000feff3a00e00f5400ebff3a004f05be0063
:102dc000080078004f04be000080fa0000000600f2
:102dd00021e2a9000000fa002168a9000080fa00a1
:102de0002188a9000168a9000188a9000000060047
:102df0000168a900670260000188a9004c22dd007b
:102e00000000fa00f5ff28000080fa00264280004a
:102e100086826200850272000002780025428800e6
:102e20000407b20085ff2f004422de0036428000f6
:102e30008682620085027200680260003542880066
:102e40004322de00f57f2f00610262000641800010
:102e5000868262004b22dd000008b200850272000b
:102e60004700de000541880061006000f4ff2e008d
:102e70004c00dd0005418000050262000402700084
:102e80000441880000000600421188000000fa009a
:102e9000001188000080fa0011118800000006006f
:102ea000001020000000fa002202b6000080fa00a4
:102eb0000000e9004f00de00000006000411800061
:102ec0000000fa0066026200e60f520001003200c4
:102ed000f00fb200201188000080fa000000060008
:102ee00031e2a9000000fa0023c8a9000080fa001e
:102ef00023e8a90003c8a90003e8a9000000060010
:102f000003c8a9006702600003e8a9004822dd00a9
:102f10000000fa00f58f2f000080fa007642800052
:102f20008682620085027200000278007542880085
:102f30000407b200f5ff28004822dd007642800039
:102f40008682620085027200680260007542880015
:102f50004322de00f5ff2b00610262001641800073
:102f6000868262004e22dd000008b20085027200f7
:102f70004700de001541880061006000f4ff270073
:102f80004f00dd0015418000050262000402700060
:102f90001441880000000600c21188000000fa00f9
:102fa000801188000080fa0091118800000006005e
:102fb000001020000000fa003202b6000080fa0083
:102fc0000000e9004f00de000000060084118000d0
:102fd0000000fa0066026200e60f520001003200b3
:102fe000f00fb200a01188000080fa000000060077
:102ff00000e8a900670260000000fa004c22dd0032
:10300000f5ff28006800600016428000868262009a
:103010004300de00850272006100600015428800f6
:103020004700dd00f4f72f000080fa000541800022
:1030300005026200040270000441880000000600de
:103040000621ef000000fa00610888000080fa0005
:10305000800888001061a9000000060004118000ab
:103060000000fa0066026200e60f520002003a0019
:10307000301180000200370030118000f00fb200e4
:103080000080fa000000060020e8a9000000fa0015
:1030900011e1a9000080fa0000e8a9000000060084
:1030a0001802d5000000fa00614060000080fa00bc
:1030b000000006000000fa0000027800020037005d
:1030c000315a78000201e900e00f5100fcff3a009c
:1030d0000080fa00000006000000fa0000027800fc
:1030e0008042eb00b4cf1200fdff3a000080ea00fe
:1030f0000080fa0000004200000006000000fa0014
:1031000000027800b1427800055a7800e0cf520002
:10311000fcff3a000080fa000000060020dd2200db
:103120000000fa0068015700ceb897006c05070050
:103130000080fa00000006000000fa00889fbe0030
:10314000030478008a9fbe00380290008005780052
:103150008c9fbe0081047800020578006200620046
:103160005200320004007800980290000020b20063
:1031700002003a00e08f52004c003a000490a00098
:1031800034049800e08f520002003a0028029000b8
:10319000040c7800b802900004c020008482620011
:1031a000848f520004003a00210020006011b80012
:1031b000080078005a0307003802900089d6b90049
:1031c00004b0a10034049800e00f5600360032002d
:1031d00028029000e00f52002400320038029000d4
:1031e0000408b20021003200d806900018029000b6
:1031f000848656008c8f560003003e00e08f5600f8
:103200001a003200010037008c0678000d017800aa
:103210008b007800180078008d854500a5ff070019
:103220000d06560018029000188c46008486460051
:10323000580290001d049800848f560007003a0041
:103240000800780074020700e00f50000e00320002
:1032500058029000040646000d00370014c0b30069
:1032600025e82200844a7800070037001b00fb0095
:103270008800780087030700e10f40000400320057
:103280008b05e8000c06e900e00f5600d0ff3a007d
:103290000900e9000c064000110009000986d80069
:1032a00000005500010037000c0078004f06be00fa
:1032b0004f05be004f04be000080fa00000006006b
:1032c0000000fa0000027800808f500008003100f2
:1032d00082824000808f52000500360002024000ca
:1032e000456278000201e900fdff3a000500370061
:1032f000e00f510003003200315a78000201e9006a
:10330000fbff37000080fa00000006000400fa000e
:10331000889fbe008a9fbe00810578008c9fbe00fa
:10332000e08f550001003200800d780080047800a5
:10333000090578008a0478003906fb000c00780043
:10334000baf60700e00f5000f9ff3a00d40220005f
:10335000840f560003003a000905780018c0b30036
:103360000500370000447800b4022000840f5600a6
:1033700001003a00090578008004eb006000b80005
:103380000906780004cdb300e5c2b30001003700a0
:103390000a05e8000a037800f003640004003a001c
:1033a0009acf120002003a000844a000f8ff37004c
:1033b0009a4678008d03fb000703b100e98f5300a4
:1033c00019003e000814a0000803fb00e98f540018
:1033d0001100320070036300010032000c06e900a6
:1033e000040f780015079800a200200003002000b9
:1033f0008904e80013f907001e0278009e0290007d
:1034000084c646000d83fb00070020000000430037
:1034100081804b00deff370070036300dcff3a0061
:103420000c06e800daff370054c6b30084cf56001c
:10343000040032008004eb0054c4b30084cf560073
:103440002e003a005a427800d5c2b300854f520090
:1034500002003a000834a00003003700b5c2b300f0
:10346000854f520001003a000a05e80007c3b30087
:103470000a0378000605780004c3b300ba42780056
:1034800087cf5200faff32008503fb008004eb0077
:103490000703b100e98f530015003e000a037800ce
:1034a00084c45200964278008984fb008503fb00a7
:1034b0000703b100e98f53000d003e00ea49b9004f
:1034c00084c45200d64278008984fb008503fb0047
:1034d000828444000703b100e98f530004003e00da
:1034e000ea49b90004c252000482fb00840441008e
:1034f00068026400010032008904ea00e08f550090
:10350000030032006202640001003200860d780080
:10351000d2f807006011b8000002be000005be002e
:10352000150798000a0f7800cff807001e027800f0
:10353000000378009e0290006000b800e00f530086
:10354000600032008c84440036f82f00868f5400cf
:1035500003003d0024022000547489005900370004
:1035600006082000868f5400070034002402200043
:1035700061046400547489004d0032000000200092
:1035800001f82f004f003700e08f54001f003d006e
:103590008904ea00060037000a00be00922f2000ce
:1035a00053012500ea845400b1f807000005be006d
:1035b000e98f5400f8ff3c00060037000a00be0007
:1035c00002002000031224008904e900a8f8070083
:1035d0000005be00e08f5400f8ff3a000a02be006a
:1035e0000200200003082000150798000a00be0012
:1035f0000a0f78009cf807001e0278009e029000d7
:10360000e00f500025003d001f003700e08f540000
:1036100007003a00210037000a00be00922f200068
:1036200053012500ea845400d3f807000005be00ca
:10363000e9cf5400f8ff3e00060037000a00be0044
:1036400002002000031224008904e900caf80700e0
:103650000005be00e08f5400f8ff3a000a02be00e9
:10366000f2ff2f00f3f72700150798000a00be00ad
:103670000a0f7800f4f807001e0278009e029000fe
:10368000e00f500005003400610464000b003200bc
:1036900000002000010828000a00370061046400cf
:1036a0000100320005f0a2000400be000500370052
:1036b0000000200001f82700020037000000200071
:1036c000010820004f06be004f05be004f04be009b
:1036d0000080fa00000006000000fa000bff07005f
:1036e0000080fa00000006008000eb000000fa00f5
:1036f00006ff07000080fa00000006000000fa0044
:103700000002780006003700314378000201e9002a
:10371000065a780084027800e04f53000600320019
:1037200084027800e00f5100f7ff3a0002003700f2
:10373000805aeb000201e900e00f5100fcff3a0063
:103740000080fa00000006000000fa008002780005
:10375000050278000043eb00b54f1300fcff3a0070
:10376000010037000201e900e00f510005003200be
:10377000b1427800055a7800e0cf5200f9ff3a00d4
:1037800001003700024a78000080fa0000000600bd
:103790000000fa00e80157004eb9970083020700c5
:1037a0000080fa00000006000002eb000a00fa00a8
:1037b00054748900889fbe00110798008a9fbe003c
:1037c000820478008c9fbe0001027800e00f520056
:1037d00001003200000a7800000578003a467800bf
:1037e0000a0478000c00fb0090f50700e00f500081
:1037f000faff3a000c427800d5c2b300854f520060
:1038000004003a003842780015c0b300054f780034
:1038100005003700004f7800b5c2b300854f520055
:1038200001003a003842780005c3b300854f5200ca
:1038300012003a0038427800e08f54000200320053
:10384000f08f54005c003a0085c7b300854f5200ea
:103850000300320085c5b300854f520003003a00d3
:10386000384278000901200053003700e08f5400ef
:1038700051003a00890020004f0037008042eb00e1
:10388000e08f54004d003a0049479800a9002000fd
:103890006055b800614eb9008402fb0044079800ef
:1038a00005007800350798006ef507004e0290007d
:1038b000be029000e00f50000500320005007800c5
:1038c00072f5070095ccb3000542400005003700b3
:1038d0000503b100e98f520020003e0005cdb30082
:1038e000054242008402fb00898f52001a003d000d
:1038f0000402fb00cfa2de000c01be0044079800ca
:10390000350798000a00be00cef707004e0290006f
:10391000be02900004034000858348000800e800d0
:10392000860f5500878f5d000500360024022000b9
:10393000000478005474890010c0b30007003700f9
:103940001842780015c0b300000478000605be00d8
:1039500045479800d0ff37000040eb004e429000f2
:10396000e04f5200040032009e029000e08f5200af
:1039700001003200880ae900e14f500006003200e1
:103980001e427800e04f520005003200600515002d
:10399000e0851d00020037000085eb008085eb000c
:1039a0004f06be000a00be004f05be004f04be0019
:1039b0000080fa000000060015c0b30045479800db
:1039c000b3ff37000002eb000000fa0054748900d6
:1039d000889fbe00810478008a9fbe008005780021
:1039e0008c9fbe00820678000b0678000c057800dc
:1039f0000a0678003c4478000800fb000bf507003d
:103a0000e00f5000f9ff3a00d4c2b300844f5400d5
:103a10000300320004c2e900844f540002003a005f
:103a20000a05e80001003700044478000d01780021
:103a3000890078000a0078005bff0700e08f5400df
:103a400007003200990f550025003a008b0c7800d2
:103a500023003700e00f5000e08f58000f003a00bd
:103a6000b4c2b300844f540004003a00e00f500089
:103a7000e08f580015003d0008003700d4c2b300a5
:103a8000844f540011003a00040020000500280073
:103a9000840f5000858f58000a0036002402200051
:103aa000f0ff2f00f1ff2700547489006b424200a1
:103ab000844f540005003a00000020000100280057
:103ac0000200370060001000e08018004f06be00c2
:103ad0004f05be004f04be000080fa000000060043
:103ae000998f5500deff3a00daff37000000fa0038
:103af000889fbe000004be00050037000000fb00e8
:103b00008900780063010700e10f400004003200e3
:103b100038407800e04f5000f8ff3a000000eb001a
:103b20004f04be000080fa000000060021dd2200e4
:103b30000000fa00881f7800ecff070021dd22005a
:103b400000047800a000200052010700080078005f
:103b50004f0478000080fa000000060021dd2200fa
:103b60000000fa004b0107000080fa000000060088
:103b70000000fa00b042780031c2520002003a0060
:103b8000e0cf5200fbff3a000400fb000080fa0087
:103b90000000060020dd22000000fa006801570046
:103ba000ceb89700ce0207000080fa0000000600a1
:103bb0000000fa00889fbe000004be000c00370021
:103bc0000900780044fd07008900780000017800b2
:103bd000080078008a010700e00f50000a00320058
:103be0000800e8009900fb00980107000004780035
:103bf000e00f5400040032000042eb00984f120026
:103c0000efff3a000004eb00080078004f04be000c
:103c10000080fa00000006000000fa00881f78000b
:103c20000004780038009000000278001420b200f0
:103c3000e10f520005003a000002eb001404980066
:103c400028029000040c78001900370080027800e8
:103c5000242020002520b2000000eb00848f5200b9
:103c600016003a00a8009000808f50001300320028
:103c700018019000800f51001000320048009000a1
:103c8000d444070018029000840f50000300320053
:103c9000380290000403b300340498003800900008
:103ca0000002eb001404980028029000040c780035
:103cb0000002b200010032000080eb004f047800e7
:103cc0000080fa00000006000000fa00889fbe0095
:103cd0000004be00e00f540003003a004874810065
:103ce000e00f5400150032000800be006301070019
:103cf000000444000042eb00984f120003003a0019
:103d00000004eb00487489000c0037000800be0076
:103d10006f010700000044000042eb00407489007e
:103d2000904f1200030032000058eb0040748900ed
:103d3000020037000002eb0044748900080078009c
:103d40004f04be000080fa000000060006c2b30067
:103d50000000fa000002780004007800b042780009
:103d600086cf5200fbff3200e9cf5200f9ff32004c
:103d7000d6c2b30086cf520003003a00000278009a
:103d800016c0b300050037000043eb00b7c2b30014
:103d900087cf520001003a00000278000000eb00db
:103da00002003700ea00b90000804200b402fb00c4
:103db0000503b100e98f5200faff3600e04f5300cf
:103dc000010032000000ea000080fa000000060056
:103dd0000000fa000002780002003700015a780063
:103de0000201e900e00f5100fcff3a000080fa00f8
:103df000000006000c00fa00889fbe00f4ff2700b8
:103e000000047800540798008004eb00080f780045
:103e10001907980028079800240c20006801570013
:103e200034079800ceb897000e0078002c020700e7
:103e30001e027800094a78001e0014004f04be00dc
:103e40000080fa00000006000000fa00881f7800d9
:103e5000000478008a9fbe008c9fbe006011b800ed
:103e6000180078001100200013f407006011b8005a
:103e70000006be0018007800210020000ef40700a4
:103e80000c01be000005be00180078008000eb00a9
:103e900009f407004f06be000a00be004f05be0031
:103ea0004f0478000080fa00000006000000fa00cd
:103eb000881f780000047800110020006011b8000d
:103ec00048009000fcf3070018029000e00f520039
:103ed00002003d000002eb0014049800280290004c
:103ee00098029000e00f5200070032003802900064
:103ef0000420b20004003200612ab9000000420030
:103f000081804a0003003700612ab9000400500094
:103f1000858058004f0478000080fa0000000600f9
:103f20000400fa00881f780000047800380290002e
:103f30000440a1003404980028029000e00f5200d1
:103f400009003a0048009000dbf307000100600020
:103f50000082ea0004f0a7000402ea000400e9007d
:103f60004f80de0048003700e18f5000050032002e
:103f7000e28f500008003200e08f50001000320045
:103f80004000370008007800020f780013079800ff
:103f9000c6ff07000600370008007800020f78000f
:103fa000130798001cff070068004400a6ff0700e5
:103fb0001e0178009e0190000201400083814800ac
:103fc000020f78001307980008007800b7ff070079
:103fd0001e0178009e01900000025100818259006c
:103fe000030032003803900006b0a00036049800a9
:103ff0003803900063036300e10f53000d003a00a3
:10400000e00f5200e08f5a000a00350018039000bc
:104010006130b900800f5200818f5a0005003c00ca
:1040200004035300180c4200160498000000eb0033
:1040300015003700380290000420b2000900320059
:1040400018029000e00f520006003200020f7800c4
:104050001307980008007800effe07009e0190000b
:104060001e0178008000eb002802900011049800e7
:10407000040c7800480090008ff307004f88de00a2
:10408000010037000080eb004f0478000080fa0048
:10409000000006000000fa00889fbe0001047800be
:1040a0008084eb0038029000e20262003b003200a4
:1040b00004037800980290000620b20002003a0043
:1040c000e08f520035003a000490a0008004780090
:1040d00034049800f90fb200e08f520002003a0059
:1040e000a8029000050c7800ea8f540005003a0001
:1040f0000408b20003003a0088007800d0002000d5
:10410000e4ff070018029000d8029000850f5200cb
:104110000b0032000402e80015c0b300140498003c
:1041200018027800094a7800040ce80024e822000c
:10413000054a7800ea8f540018003a00050037005d
:104140000940780088007800760007008004780035
:1041500012003700380290000410b2000f00320045
:1041600018019000a80090004800900099430700b3
:1041700018029000840f50000400320038029000b2
:104180000403b300340498008084eb000002eb00c9
:104190001404980028029000040c780009007800ac
:1041a0004f04be000080fa00000006000002780004
:1041b0000c00fa00820278000000eb00e18f500052
:1041c0000d0036008100e9001007980051079800a3
:1041d000040f78002407980003017800240c2000c5
:1041e00085007800340798000e0078003c01070035
:1041f0001e027800004aeb000080fa000000060072
:104200000000fa000b00370030427800e04f520007
:10421000030032000201e900b14f520005003200f4
:104220000480fb00954278008582fb000500500069
:104230000400370081027800e00f5100f2ff3a00dd
:10424000020078000080fa00000006000000fa007a
:10425000000278000400780000027800b442780080
:1042600081cf520003003200e0cf5200f9ff3a0044
:104270000000eb000080fa00000006000000fa00d9
:10428000889fbe00800478008a1f78000004eb003d
:1042900001057800010037000804e800b940780003
:1042a000e0cf5000050032008100fb000a007800da
:1042b000e6ff0700e00f5000f7ff3a004f057800d7
:1042c000080078004f04be000080fa0000000600dd
:1042d0000000fa00889fbe00800478008a1f7800e2
:1042e0000004eb0001057800010037000804e80035
:1042f000b9407800e0cf5000050032008100fb009b
:104300000a007800d1ff0700e00f5000f7ff3200ed
:104310004f057800080078004f04be000080fa00c6
:10432000000006000200fa00889fbe000104780029
:10433000004f780038029000840278000504b20033
:10434000020032000000fb0033003700e20262008e
:1043500005003a000403b3001504980034049800e3
:104360000080eb002c003700d8049000e08f540050
:1043700006003a00120020008e00780048009000ed
:10438000144307001904980022003700a802900087
:10439000e08f520008003a0065e822000430a000d7
:1043a00025049800050c78003404980025002000ae
:1043b000550498001504980018019000a80090007a
:1043c0004800900003430700280290008082eb0021
:1043d000150498001e4a7800040ce800a4c0b3003d
:1043e0009e4f12000b003a00380290000410b200f9
:1043f0000800320018019000a800900048009000ca
:10440000f44207000002eb00140498002802900018
:10441000040c78001e00fb004f04be000080fa0070
:1044200000000600d4c6b3000800fa00889fbe0052
:104430000084fb008a9fbe00844f50002c00360091
:1044400089b522004b062000110009000b84d8001a
:10445000720040004300dd000080440081057800c8
:104460006022b8000600200007fe2300aa002000fa
:104470005001be004000be0010f307000002be0065
:104480000203be00110009008a85d800049fbe0007
:104490000697be0080057800e9854500c35ddd0014
:1044a0008b8544003e00be002e01be003b02be00d4
:1044b0002b03be0001f307000002be000203be0092
:1044c000110009000a84d800049fbe000697be00b0
:1044d000010478004344dd00888444003e00be00af
:1044e0002e01be003902be002903be001d003700a8
:1044f000ea4f500013003600aa00200089b52200c0
:10450000110009000a84d800010578006904400000
:104510004355dd004344dd00088444008a844400a0
:104520006022b8000600200007fe23003800be000d
:104530002801be00e1f207003902be002903be00d7
:104540000800370084b522004344dd00080442001f
:104550006022b8000600200007fe23003800be00dd
:104560002801be00d5f207004f05be004f04be0073
:104570000080fa0000000600d40620000800fa00bf
:10458000889fbe00000478008a1f7800e00f540066
:104590001e003d000804ea00840f540007003400a8
:1045a0006902520089b52200110009000404d800f4
:1045b000720040004300dd001c003700ea0f540089
:1045c0000f003400a4002000110009000404d800ea
:1045d00084b52200690040004300dd000000420075
:1045e000430cdd00080242005001be004000be0046
:1045f0005403be004402be00b0f20700340037008e
:104600004344dd0084b522002e003700840f54009f
:10461000210034004406200089aa2200110009006c
:104620000404d800720040004300dd000081440013
:10463000aa002000110009008a00d8008000fd00b7
:10464000e9804000c308dd00818044003102be00e3
:104650002103be003200be001201be0097f2070027
:104660000002be000203be00110009000a04d800c7
:10467000049fbe000697be00010478004344dd009d
:10468000888444003e00be002e01be003902be00f8
:104690002903be00d8ff3700ea0f5400070034009a
:1046a000a4002000110009000404d80084aa2200fc
:1046b000690040004300dd00c8ff37004344dd00cf
:1046c00084aa2200080442003800be002801be006f
:1046d0004f0578004f04be000080fa00000006007d
:1046e0006c00fa00889fbe00511f98008a9fbe0090
:1046f000222798008c9fbe00000678006000b8005a
:104700006011b800101f9800211f9800321f9800f8
:10471000431f98008000eb00512f98001a093700c2
:104720005e19900054c2b3000201e800521f9800c5
:10473000844f500006003a00020278008002eb002d
:1047400000c3b30001c2b300b2c2b300100037000f
:104750003c0290000404b200040032001c02780005
:10476000004a7800040ee800050037000000fb0056
:104770008c00780047fe0700e10f4000020932007c
:10478000de2990008301e800532f9800fe083700cf
:1047900004037800d8c2b300b443780088cf530034
:1047a0000900320005003c0081cf530008003200b0
:1047b00082cf53000c003a000700370080cf53002f
:1047c00009003a00060037000530a000f0ff37006e
:1047d0000500a000eeff37000510a000ecff370039
:1047e0000520a000eaff370062826200010032006b
:1047f0000500a10068826200010032000520a100ce
:104800000702fb000403b100e90f52000d003e0057
:10481000860378000000eb003703fb00ea02b900d2
:104820000603b100040043001702fb0007037800f1
:104830000403b100e90f5200f7ff3600302798005b
:104840000a0037000005eb00a4c2b3003a27980025
:1048500084cf530005003a00ae2590000603e8001f
:104860004b0078002b27980030279800e4c2b30053
:10487000964f12001b003a0005e0a000644252006f
:10488000452f9800d64f12000300320086027800b0
:104890008003eb000c0037002e2190000603e80097
:1048a000c2017800222798007327980095c6b300ac
:1048b00007c7b300c1c6b3004e2990000e003700f1
:1048c000ea3bb90086034200050378003502fb008d
:1048d0000403b100e90f5200f9ff36007727980072
:1048e000f2ff370005c0a0000002eb00452f980042
:1048f00074279800edff37000600780030427800fa
:1049000000037800854f52003500320019003c004a
:10491000422f9800501f980035c6b300854f5200b3
:10492000cd00320009003c00fcc25200854f52000d
:104930003a003200f1c24200854f52004600320078
:10494000e04f520095083200e200370065c6b30020
:10495000854f52002c0032008542e800854f5200fe
:104960001d003200e3c25200854f5200d9003a00c8
:104970001d003700874f52003500320008003c0010
:10498000814f52001a003200422f9800501f9800a9
:10499000f5c6b300854f5200ce003a00270037001d
:1049a000422f9800501f980055c7b300854f520002
:1049b000cd003200e3c24200854f520004003200b5
:1049c000e5c25200854f5200c2003a002a0037006b
:1049d000044f780024003700044f7800130037009c
:1049e000422f9800501f9800044f7800c2003700f3
:1049f0007000610004012000010032000400280062
:104a000002017200bcff3700ce2a9000044f7800ec
:104a100005a0a000452f9800b70037004e2b90004e
:104a2000044f78000650a000462f9800ce2b90002f
:104a30000790a000472f9800af0037004e2c900041
:104a4000044f78000860a000482f9800aa003700a3
:104a5000422f9800501f9800ce2c9000044f7800f1
:104a60000950a000492f98004e2d90000a70a00018
:104a70004a2f9800a0003700ae259000044f780020
:104a80004b0278002b279800042f9800e00f52006b
:104a900002003a0021d72200012f98000e2b90002f
:104aa0008002eb00010037008502e80005024300a8
:104ab0000041eb00944f1100fbff3a00152f9800c6
:104ac000fe219000e08f5100050032001e2a900068
:104ad000848f51000200310083027800152f980066
:104ae0001e2a90000004eb003e239000840f530028
:104af0000100360004045300ce2b90000dc2b30019
:104b0000e8846300110032002d0037003c02900061
:104b10000404b200040032001c0278000d4a780040
:104b2000040ee800050037008c0078000002200029
:104b300058fd0700e10f4000030032005e2d900099
:104b40000a05e8005a2f98000804e900e00f540015
:104b5000eeff3a000084eb0019003700bc02900021
:104b60000504b20009003200880278009c03780036
:104b700035437800864b780005047800070ee8007e
:104b8000e04f53000a003a00130037008802780013
:104b90008c0078003500fb0004379800050478008d
:104ba0003cfd07000e329000e10f40000a00320089
:104bb0005e2890000000e800502f980006003700a3
:104bc00088067800090278000e2c90009e2c900038
:104bd0002e2d9000be2d9000890278008504e900fa
:104be000e08f5200ddff3a00082f9800192f98003f
:104bf0002a2f98003b2f98000d0478008404780039
:104c0000e08f5400e007320009c2b300de2e9000ae
:104c10000e0037003c0290000404b2000400320091
:104c20001c027800094a7800040ee80005003700ed
:104c30008c0078000002200016fd0700e10f400004
:104c4000010032008d06e8000804e900e00f54007e
:104c5000f0ff3a0013033700ae2090004e2b900077
:104c60004102780004047800cfc4de000905780012
:104c70008a057800212798000800be000a01be00be
:104c80004800de00480add00000072007002630088
:104c9000004f780009003200e04f5000070032005a
:104ca000e14f400005003200270020001047980027
:104cb00028479800172f98000300370018479800de
:104cc00018002000182f98008e04e800092f980083
:104cd0007bff37001b002000044f78000e2f980048
:104ce0001b2f980076ff37004e289000044f780065
:104cf000000cb300402f980004702000ce289000d4
:104d00000482600062053200040021000482600019
:104d10000200320062002000722798002e239000cb
:104d200068025300242798003404be002405be0006
:104d30006022b8006033b8000800be000a01be005f
:104d4000d9f00700e00f500004003d00ce2b90008a
:104d50003700b300472f98000bf0a2000002eb00d1
:104d60000800be00240798000a01be006022b800b7
:104d70006033b80064f40700e00f50002f003200e9
:104d8000640247000800be000a01be0063f4070089
:104d90002e009000a40020000000e900e300b9000c
:104da000110009000400d80020079800e00f50000f
:104db00002003d000000e90020079800ae069000c8
:104dc0000d00ea00ecfd07000802be000a03be0069
:104dd000baf007000002be000203be00141f9800d4
:104de000251f9800361f9800471f98006022b800c2
:104df0000600200007ff2300abf00700e00f500083
:104e000002003d000d02e9000b0037006022b800ef
:104e100006002000470224001e189000ae189000e3
:104e20003e199000ce19900059f40700e00f500091
:104e3000020035000d02e800240798004e2a900079
:104e4000ae0690000420b2000a033200e48f460050
:104e500003003500fe229000858f56009302350036
:104e60007e239000e00f5300020032000603e900a9
:104e700076279800fe239000f28f5300030036003f
:104e800024c1b300044f7800020037006ec89000c0
:104e9000004f78006022b8006033b8000800be0000
:104ea0000a01be0018f40700e00f50005d00320058
:104eb0009e00fb00012f980001805600aefd070008
:104ec0000002be000203be000800be000a01be00d0
:104ed00009f007000205be000004be0062f40700ee
:104ee00087f407000002be000203be000800be00f7
:104ef0000a01be005af007006022b8000600200038
:104f000007fe230022f40700e00f500008003500e0
:104f10000800be000a01be006022b80006002000a2
:104f200007fe23005af107000004be000205be0080
:104f30000a01be000800be004bf407000002eb00af
:104f40001017980021179800441798008e2a900097
:104f500086c022000502e8004322dd000400430071
:104f60008001eb003002be002003be003317980022
:104f70001e109000ae1090003e119000ce119000d7
:104f80000400e1000588e1000690e1000798e100d7
:104f90000b0039000800be000a01be00a4992900d8
:104fa000959929009699290097fb23008d06e80022
:104fb00042f007000004be000205be0018003700e2
:104fc0008e28900082c02200430add0004024100c6
:104fd0001e109000ae1090003e119000ce11900077
:104fe0005403be004402be000400e1000588e10055
:104ff0000690e1000798e1000a0031000800be00b9
:105000000a01be006022b80006002000470224000a
:105010008d06e90029f007000004be000205be006d
:105020002d079800be2090007e21900065825000e0
:10503000ce2990000202520034279800638261005a
:10504000030032003e2290000402e9003427980059
:105050002e0290003506200084824200640c20005d
:10506000848f520003003600be2290008502e900c2
:10507000352798004e2b90006402630051003200e7
:10508000ce2b9000620363003c029000e18263003b
:10509000e00f5300160032000404b2000800320092
:1050a0001c037800b4c2b300e08f5200010032004c
:1050b00004c2e800044b7800060ee8000800370040
:1050c000b0022000e08f5200010032000080e800b2
:1050d0008c007800effb0700e10f40002d0032004c
:1050e0005e2890000000e800502f9800290037004b
:1050f000e08f5200270032000404b20005003200a5
:105100009c02780004c2b300844a7800050ee800cf
:10511000050037008c00780000022000ddfb07004e
:10512000e10f40001b003200de2890008100e80003
:10513000512f9800170037003c0090000004b20087
:10514000040032001c0078000d487800000ee800d2
:105150000d0037000437980015379800662f980027
:10516000772f98008c00780000032000c9fb07000f
:105170000e3290009e3290006e2b9000fe2b90001d
:10518000e10f4000010032000804e8008904e90052
:10519000050037000802be005e2c9000be2490007f
:1051a0000dc3b3000a03be00e08f5400e2ff3c00d1
:1051b00039279800582f98000605be000404be0049
:1051c000530037004e2990006802610023003a0026
:1051d000170037003c0090000004b20004003200c9
:1051e0001c0078000d487800000ee8000d00370024
:1051f0000437980015379800662f9800772f98008d
:105200008c00780000022000a2fb07000e32900004
:105210009e3290006e2b9000fe2b9000e10f40001c
:10522000010032000804e8008904e90005003700a5
:105230000802be005e2c9000be2490000dc2b30098
:105240000a03be00e08f5400e2ff3c0039279800bb
:10525000582f98000605be000404be00ce29900019
:105260003c02900062836100e1826100e00f530024
:10527000160032000404b200080032001c0378005b
:10528000b4c2b300e08f52000100320004c2e80053
:10529000044b7800060ee80008003700b00220003a
:1052a000e08f5200010032000080e8008c0078009e
:1052b00078fb0700e10f4000150032005e2a9000e5
:1052c0000402e800542f980011003700e08f5200cc
:1052d0000f0032000404b200050032009c02780086
:1052e00004c2b300844a7800050ee80005003700c8
:1052f0008c0078000002200066fb0700e10f4000f0
:1053000003003200de2a90008502e800552f980045
:105310000800be000a01be000004eb0052f30700c3
:105320008003eb00bc0290005017980061179800b2
:1053300077179800081f98000504b2001e02fb00b2
:10534000878f52001100320085c022004322dd0009
:10535000048242001c0478005e109000ee10900061
:105360007e1190008e1990005403be004402be00ce
:105370002af207000043b000004c7800080ee80055
:10538000e04f500010003a001200370085c02200a4
:105390004322dd00048242005e109000ee10900077
:1053a0007e1190008e1990005403be004402be008e
:1053b0001af207008c0078000003b00035fb0700ec
:1053c000e10f400003003200de2c90008904e80069
:1053d000592f980085c022001e02fb004322dd00e9
:1053e000048242005e109000ee1090007e1190004a
:1053f0008e1990005403be004402be0010f2070054
:10540000fe229000002f9800112f9800222f980064
:10541000332f9800e08f52006f0032003c02900062
:105420000404b200050032009c027800e4c2b3001c
:10543000844a7800050ee800050037008c007800eb
:10544000e002200013fb0700e10f400003003200e0
:105450005e2b90000603e800562f98009e467800c9
:1054600089c022003f0037000e2890009e2890003f
:105470002e299000be299000e00f5000e08f5800c8
:10548000e00f5900e08f590003003a00004feb0095
:105490000004eb004b0037003c0290008502fb004b
:1054a0000404b20010003200c32add0085824400eb
:1054b0001c0478000e2890009e2890002e29900051
:1054c000be2990005503be004502be00d3f107007f
:1054d0000043b000004c7800080ee800e04f500098
:1054e0000f003a0011003700c32add008582440016
:1054f0000e2890009e2890002e299000be29900032
:105500005503be004502be00c4f107008c007800c0
:105510000003b000dffa0700e10f40000300320093
:10552000de2890008100e800512f98001e02fb0049
:105530004322dd00048244000e2890009e28900043
:105540002e299000be2990005403be004402be00e4
:10555000bbf10700002f9800112f9800222f980010
:10556000332f98001e4278008442e900054f7800ee
:10557000e04f5200bcff3a000d04fb00fe229000f9
:10558000088452000f0037003c0290000404b2006f
:10559000040032001c027800094a7800040ee8007a
:1055a000050037008c00780000032000b9fa0700de
:1055b000e10f4000010032008d06e8000804e90018
:1055c00002003700de2e900009c3b300e00f540044
:1055d000edff3a005d2f9800ce2a90003c0290002b
:1055e0000502b200100032000404b20005003200cf
:1055f0009c02780054c4b300844a7800050ee80089
:10560000050037008c00780050042000a1fa070044
:10561000e10f4000130032005e2b90000603e8000b
:10562000562f98000f0037000404b2000500320026
:105630009c02780054c6b300844a7800050ee80046
:10564000050037008c0078005006200091fa070012
:10565000e10f400003003200de2b90008703e800da
:10566000572f98002e029000bc029000e00f5200cd
:1056700012003d000402ea000504b200240798006d
:10568000050032001c027800d8c2b300084a780036
:10569000040ee800050037008c007800d0022000de
:1056a0007cfa0700e10f400013003200de2c90006e
:1056b0008904e800592f98000f0037000504b20054
:1056c000050032009c027800b4c2b300844a78001e
:1056d000050ee800050037008c007800b0022000bd
:1056e0006cfa0700e10f4000030032005e2d9000cd
:1056f0000a05e8005a2f98002e009000340620007a
:10570000840f50001c0034003c029000450620002d
:105710000404b200090032001c02780011000900e4
:105720000500d8000043b000004a7800040ee800ed
:10573000e04f500008003a000a003700110009004d
:105740000500d8008c0078000003b00051fa070073
:10575000e10f400003003200de2d90008b05e800d1
:105760005b2f9800ae009000440620001100090055
:105770008400d800210798003c0290002e00900081
:105780000404b2000a0032009c027800a400200049
:10579000110009000400d8000043b000804a7800de
:1057a000050ee800e04f500009003a000b003700fa
:1057b000a4002000110009000400d8008c0078002b
:1057c0000003b00033fa0700e10f4000030032008d
:1057d0005e2890000000e800502f98003c029000e6
:1057e0002e0090000404b2000a0032009c027800ef
:1057f000a4002000110009000400d8000143b000fb
:10580000814a7800050ee800e0cf50000a003a0017
:105810000c003700a4002000110009000400d8008b
:1058200000032000010040008c00780019fa0700f6
:10583000e10f400003003200de2890008100e80004
:10584000512f98004e299000e8026100ce043200ea
:10585000be219000e08f5100cb043400de2e90007a
:1058600008c2b300830478003c0290000404b20034
:10587000040032001c027800084a7800040ee80098
:10588000050037008c0078000002200001fa0700b4
:10589000e10f4000010032008d06e8008904e900b4
:1058a000f1ff3a005d2f9800b7043700e08f5600f3
:1058b00004003d007e2290008d86ea000d02420029
:1058c000742798000800be000a01be00b5f1070069
:1058d0000802be00002f9800112f9800222f980078
:1058e000332f98000a03be0081c022000040eb0065
:1058f000641f9800751f98000627980017279800c6
:105900000c0037003102be003103be000e2c9000a7
:105910009e2c90002e2d9000be2d90000440e100a2
:1059200005c8e10006d0e10007d8e1000300390016
:105930000040e800f44f5000f2ff3a000002fb0084
:105940006e1c9000fe1c90000e2590009e2590007d
:105950007e2090000400500070279800f80f50003f
:1059600009003c006ec89000aefa07000002be00bd
:105970000203be000800be000a01be00c4ee07001c
:105980000004be000205be007e209000fafa070067
:105990000002be000203be000e2890009e28900068
:1059a0002e299000be299000641f9800751f980052
:1059b000062798001727980035ee07000002be0062
:1059c0000203be000800be000a01be00a4ed0700ed
:1059d0000002be000203be006e189000fe18900088
:1059e0000e2190009e219000b4ed07006df107009c
:1059f0000802be000a03be00fe269000042f980095
:105a0000152f9800262f9800372f98000205be000a
:105a10000004be00090037000800be000a01be00f5
:105a2000a4002000050020006033b8008d06e900c6
:105a30007af007000205be000004be00e08f5600a9
:105a400019003200a4002000050020006033b800d7
:105a50000800be000a01be0079f00700e00f500008
:105a6000e08f5800e00f5900e08f5900eaff320044
:105a70000d003700fe229000f88f52000f003c000e
:105a80000540780067fa07000002be000203be006e
:105a90000800be000a01be007dee07000004be0043
:105aa0000205be00050037000e2c90009e2c9000d1
:105ab0002e2d9000be2d90007d279800ae06900000
:105ac000e98f560011003c006022b8006033b80036
:105ad0000800be000a01be000bf10700e00f5000f5
:105ae0002c0032000800be000a01be002df10700a4
:105af000e00f5000e08f5800e00f5900e08f590090
:105b000024003a00e18f56002200340054692d0031
:105b100065822e00b6e02200170124001e189000b6
:105b2000ae1890003e199000ce1990005eed07006f
:105b3000e00f500002003d00f386560001003700e0
:105b4000f28656002d0798002e0090008afa070072
:105b50000002be000203be000800be00141f980031
:105b6000251f9800361f9800471f98000a01be00a5
:105b70006044b8006055b800dfec070009f1070089
:105b8000002f9800112f9800222f9800332f980093
:105b9000110037000800be000a01be0001f1070035
:105ba000002f9800112f9800222f9800332f980073
:105bb000b7ed07000002be000203be000800be00f1
:105bc0000a01be0026ed07000002eb002407980042
:105bd0000004be000205be000802be000a03be00ab
:105be00001c1220010c0b300243798003537980057
:105bf00046379800573798000c0037003104be0034
:105c00003105be000e2a90009e2a90002e2b900097
:105c1000be2b90000820e10009a8e1000ab0e100d5
:105c20000bb8e100030039000040e800f44f5000d9
:105c3000f2ff3a002e029000be2290007e239000d8
:105c4000048252002e349000be3490004e359000f5
